:020000040800F2
:10000000005000204D1A0008951A0008951A0008A3
:10001000951A0008951A0008951A000800000000BB
:10002000000000000000000000000000951A000819
:10003000951A000800000000951A0008A30F000898
:10004000951A0008951A0008951A0008951A0008D4
:10005000951A0008951A0008FD18000803190008F1
:10006000091900080F19000815190008951A000849
:10007000951A0008951A0008951A0008951A0008A4
:10008000951A0008951A0008951A0008951A000894
:10009000951A0008951A0008951A00081B190008FF
:1000A000951A0008D91C0008951A0008ED1C0008D4
:1000B000F11C0008051D0008191D0008951A00080C
:1000C000951A0008951A0008951A0008951A000854
:1000D000951A0008151800082D1800084518000882
:1000E0003119000871140008951A0008000000007A
:1000F0000000000000000000000000000000000000
:0C01000000000000000000005FF808F1A3
:10010C0010B5054C237833B9044B13B10448AFF345
:10011C0000800123237010BD880000200000000027
:10012C001C23000808B5034B1BB103490348AFF36C
:10013C00008008BD000000008C0000201C2300087B
:10014C000121112001F0A2BC08B50121112001F000
:10015C00EBFC642001F00EFD1120002101F0E4FC09
:10016C00BDE80840642001F005BD000003460A49C3
:10017C0010B508680344EFF30882934205D90C22AA
:10018C004FF0FF30054B1A6010BD054A054C121B91
:10019C009342F4D20B60F7E7000000203C030020F0
:1001AC000050002000040000FEE700001622024B65
:1001BC004FF0FF301A6070473C030020012070475D
:1001CC007047000038B50E4B054618784FF47A731B
:1001DC00B3FBF0F30B4A1068B0FBF3F000F0A0F89F
:1001EC00044658B90F2D09D8024629464FF0FF3066
:1001FC0000F042F82046044B1D6038BD0120FCE79E
:10020C00040000202000002008000020074A08B548
:10021C001368032043F01003136000F01BF8002058
:10022C00FFF7D0FFFFF7CCFF002008BD00200240F5
:10023C00034A044B11681B780B441360704700BFD2
:10024C003803002004000020014B1868704700BFE1
:10025C003803002007490302CA6803F4E06322F460
:10026C00E0621204120C134343F0BF6343F40033F7
:10027C00CB60704700ED00E0164B30B5DC68C4F382
:10028C000224C4F10703251D042B28BF0423062DCB
:10029C004FF0FF3598BF002405FA03F388BF033CE9
:1002AC0021EA0303A34005FA04F422EA040200281D
:1002BC0043EA0203ACBF00F16040074A4FEA031364
:1002CC00DBB2ABBF00F5614000F00F0080F80033EB
:1002DC00135430BD00ED00E014ED00E0002808DB05
:1002EC000123420900F01F0003FA00F0014B43F810
:1002FC002200704700E100E000280DDB01224309D9
:10030C0000F01F0002FA00F0044A203342F82300E8
:10031C00BFF34F8FBFF36F8F704700BF00E100E05A
:10032C000138B0F1807F0AD2F021064B064A5860A2
:10033C0082F823100020072298601A607047012071
:10034C00704700BF10E000E000ED00E0002809DB82
:10035C000122430900F01F0002FA00F0024A603348
:10036C0042F82300704700BF00E100E0704708B579
:10037C00FFF7FCFF08BD000008B590F82130022BF8
:10038C0003D004238363012008BD03681A6822F09C
:10039C000E021A601A6822F001021A60174A934280
:1003AC001CD0143293421BD0143293421AD0143204
:1003BC0093421AD0143293421AD0143293420CBF87
:1003CC004FF480134FF080730D4A53604FF48073D9
:1003DC000384436B7BB198470020D5E70123F3E7F7
:1003EC001023F1E74FF48073EEE74FF48053EBE703
:1003FC004FF48033E8E71846C6E700BF0800024018
:10040C0000000240044A08B55169014202D0506113
:10041C0001F058FA08BD00BF000401402DE9F3417A
:10042C00054638B30368DB0710D42B689F075ED4EE
:10043C002B68190700F195802B685A0700F1BF80D3
:10044C00E869002840F02C81002029E08F4C63687B
:10045C0003F00C03042B07D0636803F00C03082B88
:10046C000AD16368DE0307D523689C03DDD56B686E
:10047C00002BDAD1012013E06B68B3F5803F12D169
:10048C00236843F480332360FFF7DEFE06462368BF
:10049C009803CAD4FFF7D8FE801B6428F7D9032031
:1004AC0002B0BDE8F0819BB9236823F4803323604C
:1004BC00236823F480232360FFF7C6FE06462368D7
:1004CC009903B2D5FFF7C0FE801B6428F7D9E6E785
:1004DC00B3F5A02F236803D143F480232360CFE727
:1004EC0023F480332360236823F48023CBE7674C09
:1004FC00636813F00C0F07D0636803F00C03082B30
:10050C0010D16368DA030DD423689B0702D52B69DD
:10051C00012BAFD123686A6923F0F80343EAC203C5
:10052C00236085E72A695A4B6AB101221A60FFF7EA
:10053C008BFE064623689F07ECD4FFF785FE801BD5
:10054C000228F7D9ABE71A60FFF77EFE0646236850
:10055C0098077FF56DAFFFF777FE801B0228F6D961
:10056C009DE7AA69494E4B4BDAB101221A60FFF79D
:10057C006BFE0446736A9B070DD54FF4FA52464B3B
:10058C001B68B3FBF2F3019300BF019B5A1E01924F
:10059C00002BF9D150E7FFF757FE001B0228E9D9D1
:1005AC007DE71A60FFF750FE0446736A9F077FF5DC
:1005BC0043AFFFF749FE001B0228F6D96FE7334C17
:1005CC00E369D80024D40127E36943F08053E36145
:1005DC00E36903F080530093009B304E3368D905D8
:1005EC0018D5EB68012B26D1236A43F00103236253
:1005FC00FFF72AFE41F288380646236A9B073FD54F
:10060C00002F3FF41DAFE36923F08053E36117E73C
:10061C000027E2E7336843F480733360FFF714FE7E
:10062C0080463368DA05DCD4FFF70EFEA0EB080039
:10063C006428F6D933E7ABB9236A41F2883823F042
:10064C0001032362236A23F004032362FFF7FCFDFA
:10065C000646236A9807D3D5FFF7F6FD801B404565
:10066C00F7D91CE7052B236A03D143F0040323625B
:10067C00BAE723F001032362236A23F00403B6E7ED
:10068C00FFF7E2FD801B4045B7D908E70010024098
:10069C0000004242800442422000002000700040D2
:1006AC002A4B5A681C4602F00C02082A3DD0002343
:1006BC00274E022833602BD1FFF7C6FD074623686F
:1006CC0099011FD42B6AB3F5803F05D16268A968E4
:1006DC0022F400320A436260696A62680B4322F4B6
:1006EC0074121343636001233360FFF7ADFD0546BD
:1006FC0023689A013FF5A8AEFFF7A6FD401B022820
:10070C00F6D9CCE6FFF7A0FDC01B0228D7D9C6E668
:10071C00FFF79AFD054623689B017FF595AEFFF721
:10072C0093FD401B0228F6D9B9E601283FF4B8AE78
:10073C005B682A6A03F4803191427FF49BAE6A6A4B
:10074C0003F4701393423FF47FAE93E60010024023
:10075C006000424230B5184B87B002AC03F1100573
:10076C00224618685968083303C2AB421446F7D1C5
:10077C0040F201231149ADF804304B6803F00C0230
:10078C00082A17D1C3F3834206A80244DB0312F8EC
:10079C00102C0CD54B680A48C3F34043504306AAAF
:1007AC00134413F8143CB0FBF3F007B030BD05480C
:1007BC005043FAE70248F8E73423000800100240DF
:1007CC0000127A0000093D002DE9F0410D46044667
:1007DC0010B90120BDE8F081444A136803F0070307
:1007EC008B4228D321688E0730D4CA0743D43F4AA2
:1007FC00136803F00703AB4265D822683C4D12F036
:10080C00040F6CD1130706D56B68226923F460536F
:10081C0043EAC2036B60FFF79DFF6B68354AC3F375
:10082C000313D35CD840344B1860344B1868FFF773
:10083C00C9FC0020CEE7136823F007030B431360B9
:10084C00136803F007038B42C3D1CBE7284B11F09D
:10085C00040F1EBF5A6842F4E0625A60080742BF98
:10086C005A6842F460525A605A68A06822F0F0024A
:10087C0002435A60B9E762681D4E012A33681AD1E7
:10088C0013F4003FA5D0736841F2883823F00303BA
:10089C0013437360FFF7D8FC07467368626803F074
:1008AC000C03B3EB820FA2D0FFF7CEFCC01B40456C
:1008BC00F3D903208EE7022A02D113F0007FE1E77F
:1008CC0013F0020FDEE7136823F007032B431360CA
:1008DC00136803F00703AB427FF47BAF8DE76B68C3
:1008EC00E16823F4E0630B436B608BE7002002406C
:1008FC0000100240EC23000820000020080000201B
:10090C0003682DE9F341D907054620D5354CE36939
:10091C00DA0032D40127E36943F08053E361E369E1
:10092C0003F080530193019B2F4E3368DB0526D5D2
:10093C00236A13F4407336D1236A6A6823F4407334
:10094C00134323621FB1E36923F08053E3612868EA
:10095C00830706D52349AB684A6822F440421A4300
:10096C004A6010F010001BD01E4AE9685368002042
:10097C0023F480030B43536012E00027D4E7336861
:10098C0043F480733360FFF75FFC80463368D8050F
:10099C00CED4FFF759FCA0EB08006428F6D903204D
:1009AC0002B0BDE8F0816A6802F440729A42C3D08A
:1009BC0001200E4A236A1060002023F4407110605D
:1009CC002162D907B8D5FFF73FFC41F288380646BB
:1009DC00236A9A07B0D4FFF737FC801B4045F7D940
:1009EC00DDE700BF001002400070004040044242AE
:1009FC00036810B51A680446920708D55B689B0714
:100A0C0005D500F023FD6FF0020223685A604FF405
:100A1C000032024B5A610123637410BD0004014083
:100A2C0070477047036810B51A69044691070ED5D4
:100A3C00DA6892070BD56FF002021A610122027775
:100A4C009B699B0777D001F0B5F9002323772368C6
:100A5C001A69500710D5DA6851070DD56FF00402EA
:100A6C001A61022222779B69204613F4407F68D0DA
:100A7C0001F0A0F90023237723681A6912070FD518
:100A8C00DA6810070CD56FF008021A61042222777D
:100A9C00DB69204699075AD001F08CF900232377A3
:100AAC0023681A69D20610D5DA68D0060DD56FF016
:100ABC0010021A6108222277DB69204613F4407F6A
:100ACC004BD001F077F90023237723681A69D107FB
:100ADC0008D5DA68D20705D56FF0010220461A61F5
:100AEC0001F03CF923681A69100608D5DA6811067A
:100AFC0005D56FF0800220461A6100F088F8236853
:100B0C001A69520608D5DA68500605D56FF040020E
:100B1C0020461A61FFF785FF23681A69910622D5D2
:100B2C00DA6892061FD56FF020022046BDE810400F
:100B3C001A6100F06BB801F03BF92046FFF770FF2B
:100B4C0083E701F035F92046FFF76AFF92E701F0E1
:100B5C002FF92046FFF764FFA0E701F029F92046A2
:100B6C00FFF75EFFAFE710BD1A4A036890420AD048
:100B7C00B0F1804F07D0A2F59432904203D002F529
:100B8C008062904215D14A6823F070031343114AD6
:100B9C0090420AD0B0F1804F07D0A2F59432904227
:100BAC0003D002F58062904203D1CA6823F44073EB
:100BBC0013434A6923F08003134303608B68C362B9
:100BCC000B688362034B984204BF0B6903630123D8
:100BDC0043617047002C014010B50446A0B190F859
:100BEC003D3003F0FF021BB980F83C2000F028FDDB
:100BFC000223206884F83D30211DFFF7B5FF012347
:100C0C00002084F83D3010BD0120FCE77047704790
:100C1C000368DA6822F49072DA605A6922F00102F1
:100C2C005A61202380F83A30704790F83930202BE5
:100C3C0018D1A9B1A2B190F83830012B12D0C284CE
:100C4C0000238284212201620168C36380F838305A
:100C5C0080F83920CA68184642F08002CA60704792
:100C6C00012070470220704790F83A30202B20D199
:100C7C00E9B1E2B190F83830012B1AD0C2858285E7
:100C8C0000232222C36380F83A20026880F83830AF
:100C9C008162D168184641F48071D160516941F08C
:100CAC0001015161D16841F02001D16070470120F0
:100CBC0070470220704710B590F83A30222B33D190
:100CCC0081680469B1F5805F836A026823D1526838
:100CDC00ECB9C2F3080223F8022B8362C48D013CE9
:100CEC00A4B2C4858CB90368DA6822F02002DA60F9
:100CFC00DA6822F48072DA605A6922F001025A61D1
:100D0C00202380F83A3000F02BFD00200DE0D2B209
:100D1C0023F8012BE1E7591C526881620CB91A7057
:100D2C00DCE702F07F02FAE7022010BD036870B521
:100D3C001A6804461607D9685D6907D1960659D515
:100D4C008D0657D5BDE87040FFF7B5BF05F0010023
:100D5C0001F4907505434DD0D60705D5CD0542BF9E
:100D6C00E36B43F00103E363530704D518B1E36B62
:100D7C0043F00203E363960704D518B1E36B43F029
:100D8C000403E363150704D518B1E36B43F00803C0
:100D9C00E363E36B4BB3900604D5890602D520467A
:100DAC00FFF789FF236820465B69E56B03F040037E
:100DBC0005F008051D4319D0FFF72AFF23685A696F
:100DCC0052060FD55A69606B22F040025A6148B145
:100DDC00254B4363FFF7D0FA38B1606BBDE8704028
:100DEC00436B1847204600F0D1FC70BD00F0CEFCE0
:100DFC00E563FAE7160628D50D0626D594F83920B2
:100E0C00212AF2D1A168226AB1F5805F18D111882C
:100E1C00C1F308015960216981B902322262E28C66
:100E2C00013A92B2E284002ADFD1DA6822F0800221
:100E3C00DA60DA6842F04002DA60D6E70132EDE7B8
:100E4C00511C216212785A60E9E75006CDD54A064A
:100E5C00CBD5DA68204622F04002DA60202384F8F1
:100E6C00393000F080FCC0E7790E000808B500238B
:100E7C00406AC385C38400F089FC08BD90F8383003
:100E8C00012B11D02423026880F83930D36823F069
:100E9C000C0343F00803D360202380F8393000237F
:100EAC0080F83830184670470220704790F8383078
:100EBC00012B11D02423026880F83930D36823F039
:100ECC000C0343F00403D360202380F83930002353
:100EDC0080F83830184670470220704790F8392057
:100EEC0090F83A001043704786B0042841D8DFE8E8
:100EFC0000F003101C2834001F4B20489A6942F064
:100F0C0004029A619B6903F004030193019B06B0F0
:100F1C007047194B1A489A6942F008029A619B690A
:100F2C0003F008030293029BF1E7134B15489A69EF
:100F3C0042F010029A619B6903F010030393039B28
:100F4C00E5E70D4B10489A6942F020029A619B69C3
:100F5C0003F020030493049BD9E7074B0B489A69D1
:100F6C0042F040029A619B6903F040030593059B94
:100F7C00CDE70020CBE700BF001002400008014085
:100F8C00000C014000100140001401400018014009
:100F9C00FFF75AB9704708B5FFF74AF9FFF7E7F9B9
:100FAC00FFF7F8FF08BD00000B4BDA68D2015EBFFB
:100FBC00DA6842F08072DA600022084B5A601A68D4
:100FCC0042F001021A6000BF00BF00BF5868B0FABF
:100FDC0080F04009704700BFF0ED00E0001000E029
:100FEC0008B5FFF7E1FFFFF711F9BDE8084000F085
:100FFC00F7BC00007B4B82B09A69013842F00102C9
:10100C009A619B6903F001030193019B23282CD85F
:10101C00DFE810F024002D0034003B0040004700B6
:10102C004C00530058005F0068006D0074007D0098
:10103C008200890092009B00A000A700B000B500C0
:10104C00BC002B002B002B00C100C8002B002B0078
:10105C002B002B00CD00D200D900E000624A53686F
:10106C0043F0E06343F00103536002B070475E4A03
:10107C00536823F0010343F0E063F5E75A4A5368E1
:10108C0043F0E06343F00203EEE7574A536823F062
:10109C000203F0E7544A536843F0E06343F004035F
:1010AC00E2E7514A536823F00403E4E74E4A5368DD
:1010BC0043F0E06343F00803D6E74B4A536823F050
:1010CC000803D8E7484A536843F0E06343F0300321
:1010DC00CAE7454A536823F0300343F0E06343F01A
:1010EC001003C1E7404A536823F03003C3E73E4A7C
:1010FC00536843F0E06343F0C003B5E73A4A5368E2
:10110C0023F0C00343F0E06343F04003ACE7364AFE
:10111C00536823F0C003AEE7334A536843F0E063EF
:10112C0043F44073A0E7304A536823F4407343F010
:10113C00E06343F4007397E72B4A536823F440733E
:10114C0043F0E06343F480738EE7274A536823F43B
:10115C00407390E7244A536843F0E06343F44063E0
:10116C0082E7214A536823F4406343F0E06343F47D
:10117C00006379E71C4A536823F440637BE71A4AFF
:10118C00536843F0E06343F480536DE7164A5368A9
:10119C0023F480536FE7144A536843F0E06343F43D
:1011AC00004361E7104A536823F4004363E70E4A97
:1011BC00536823F0E06357E70B4A536823F0E0636E
:1011CC0043F0807350E7084A536823F0E06343F020
:1011DC00007349E7044A536823F0E06343F08063EB
:1011EC0042E700BF001002400000014070B50D0E38
:1011FC00445991FAA1F3B3FA83F30F269B0006FA34
:10120C0003F324EA030491FAA1F1B1FA81F1890004
:10121C0002FA01F12143415170BD70B50D0E4459D4
:10122C0091FAA1F3B3FA83F304269B0006FA03F3B5
:10123C0024EA030491FAA1F1B1FA81F1890002FACE
:10124C0001F12143415170BD431C04D00C3131F9E3
:10125C000C3C5A1C01D100207047834201F10C0157
:10126C00F5D1012070470000624B2DE9F74F00F0DB
:10127C000F0253F82250431C07460E4601F0070993
:10128C00C1F3062BC0F303141FFA80F803D14821D5
:10129C00594800F0EDF82046FFF726FEB9F1010F92
:1012AC0004464FEA156A45D150F80A1095FAA5F292
:1012BC00B2FA82F20323920003FA02F221EA02024A
:1012CC0095FAA5F0B0FA80F0800083401343012218
:1012DC0044F80A302946204609F1FF39FFF786FF0A
:1012EC00B9F1010F06D816F0080218BF04222946DE
:1012FC00FFF793FF54F80A10C6F3011695FAA5F2FE
:10130C00B2FA82F39A000F2393400B4095FAA5F2A0
:10131C00B2FA82F2012E4FEA820223FA02F322D0B1
:10132C00022E4BD0082B31D1042229462046FFF740
:10133C005DFF2BE0B9F1030F0DD8DFE809F00212C5
:10134C0007105846FFF756FE0822C3E75846FFF72A
:10135C0051FE0922BEE78D21274800F089F80022B2
:10136C00B8E74A46B6E7042B04D1082229462046A2
:10137C00FFF73CFFE2682B0A22EA152293FAA3F549
:10138C00B5FA85F301259D401543E5601B4B9A6921
:10139C0042F001029A619B6903F001030193019BE6
:1013AC00A8F10D03012B17D8154A536823F0E063FD
:1013BC0043F08063536003B0BDE8F08F042B04D17D
:1013CC00082229462046FFF711FFE3682A0A23EA80
:1013DC00152592FAA2F2D8E70F2F04D0A8F1130822
:1013EC00B8F1010FE7D8064A536823F0E06343F0E5
:1013FC000073DFE7AC23000845230008001002400F
:10140C0000000140B1F900305A1C01D10020704796
:10141C00834201D1486870470C31F3E7431C01D07B
:10142C00FFF7F0BF002070474B6813B94FF0FF3047
:10143C007047834202D1B1F9000070470C31F3E7D9
:10144C0008B1FFF7F1BF4FF0FF307047034B1B683B
:10145C0013B1034A10681847704700BFA40000205E
:10146C00BC0000200148FFF7C3BA00BFA800002051
:10147C00FEE700000F4B1A6842F001021A6059682F
:10148C000D4A0A405A601A6822F0847222F48032A3
:10149C001A601A6822F480221A605A6822F4FE023A
:1014AC005A604FF41F029A604FF00062034B9A602F
:1014BC00704700BF001002400000FFF800ED00E094
:1014CC000438704703681D4A84B093420BD11C4BFF
:1014DC009A6942F400629A619B6903F40063009379
:1014EC00009B04B07047B3F1804F10D0154A934263
:1014FC0018D0154A9342F4D1114BDA6942F0040228
:10150C00DA61DB6903F004030393039BE9E70C4BFB
:10151C00DA6942F00102DA61DB6903F0010301933D
:10152C00019BDEE7064BDA6942F00202DA61DB6905
:10153C0003F002030293029BD3E700BF002C01408F
:10154C000010024000040040000800400368124AEA
:10155C00934206D102F56442936923F400639361CC
:10156C007047B3F1804F06D00C4A934209D00C4A15
:10157C0093420BD070470B4AD36923F00103D3611C
:10158C007047084AD36923F00203F8E7054AD36988
:10159C0023F00403F3E700BF002C014000040040DB
:1015AC00000800400010024008B5431C01460DD055
:1015BC000D4B984212D00CD8B0F1804F10D0A3F53F
:1015CC00806398420ED00948FFF752FF6FF00D0070
:1015DC0008BD074B9842F6D11920F9E71E20F7E712
:1015EC001C20F5E71D20F3E700080040FC23000851
:1015FC00002C014008B5431C01460DD00D4B984200
:10160C0012D00CD8B0F1804F10D0A3F58063984263
:10161C000ED00948FFF72CFF6FF00D0008BD074BEB
:10162C009842F6D11B20F9E71E20F7E71C20F5E7BE
:10163C001D20F3E700080040FC230008002C0140AB
:10164C0038B50446FFF73EFF0068FFF7ADFFD4E95D
:10165C001012FEF711FE2068FFF7A6FFFEF73EFE04
:10166C002068FFF7C7FF05462068FFF79DFF8542FE
:10167C000DD02068FFF7BEFFD4E91012FEF7FCFD79
:10168C002068FFF7B7FFBDE83840FEF727BE38BD2E
:10169C0008B5074B90F8512053F82200FFF71EFCB9
:1016AC0000F02200A0F122035842584108BD00BFAF
:1016BC00C000002008B5074B90F8512053F82200C9
:1016CC00FFF70CFC00F02100A0F121035842584117
:1016DC0008BD00BFC000002010B50446E8B181640D
:1016EC0090F95000FEF708FEB4F86230A16D9BB281
:1016FC0094F851001944094B012253F82000FFF7CC
:10170C0094FA94F9500000220121FEF7B5FD94F9EA
:10171C005000BDE81040FEF7E1BD10BDC000002038
:10172C0050B1B0F94E30013306D190F85120034B33
:10173C0053F82200FFF7A2BB704700BFC000002087
:10174C0050B1B0F94E30013306D190F85120034B13
:10175C0053F82200FFF7AABB704700BFC00000205F
:10176C00036C0438184710B5436C0446043898478A
:10177C0001300AD0B4F85E30616D9BB22046BDE8F2
:10178C00104001221944FFF750BA10BD1FB5036871
:10179C000446186810F0010013D0002200921A6859
:1017AC0000925B680093009B201FFFF771FF40BB0A
:1017BC000122204604F14E0104B0BDE81040FFF7B1
:1017CC0053BA196811F0020106D001901A680192FF
:1017DC005B680193019BE7E71A6812F0040206D0DC
:1017EC0002911A6802925B680293029BDCE719680B
:1017FC000907D9D503921A6803925B680393039B7C
:10180C00D2E704B010BD000008B52520FEF79EFD00
:10181C00024B1868BDE80840FFF788BAC0000020EA
:10182C0008B52620FEF792FD024B5868BDE808402B
:10183C00FFF77CBAC0000020272008B5FEF786FD14
:10184C00034B986818B1BDE80840FFF76FBA08BDA4
:10185C00C0000020F8B514490646FFF7DFFD00F084
:10186C00A3F9124C054654F8203073B90E49304692
:10187C00FFF7D4FD0746A82000F0B0FA064639461B
:10188C0000F0CEF954F825301E6054F825301C6851
:10189C0044B1204600F0A4F92046BDE8F840A82148
:1018AC0000F09EBAF8BD00BF142400080C02002002
:1018BC00836810B5044613B10322014698472046AD
:1018CC0010BD00000023012803F1010202D01346D1
:1018DC004008F8E71421DBB24B43044A181D1044AE
:1018EC00816811B11A44136918477047CC00002065
:1018FC000120FEF787BD0220FEF784BD0420FEF711
:10190C0081BD0820FEF77EBD1020FEF77BBD38B5EB
:10191C0005242025A8B2FEF775FD013C4FEA4505CC
:10192C00F8D138BD38B506244FF48065A8B2FEF75F
:10193C0069FD013C4FEA4505F8D138BD0721204B24
:10194C0006221975082183F82810092183F83C1008
:10195C000A2183F8501017211A7083F864100022A2
:10196C0083F8781083F88C1083F8A01083F8B410E7
:10197C002821DA601A625A639A64DA651A67C3F826
:10198C008420C3F89820C3F8AC20C3F8C02083F897
:10199C00C810C3F8D42083F8DC10C3F8E82083F80F
:1019AC00F010C3F8FC2083F80411C3F8102183F85D
:1019BC001811C3F8242183F82C11C3F8382170476F
:1019CC00CC00002038B5054CA4F5A075143C201DA6
:1019DC00FFF76EFFAC42F9D138BD00BF0C020020FE
:1019EC0010B54FF480330122022494B00021CDE9CC
:1019FC000A23CDE911434FF4E0130AA80C910E927F
:101A0C001393FEF70BFD00B1FEE70F23CDE9053470
:101A1C004FF480630790CDE90830214605A8FEF706
:101A2C00D3FE00B1FEE7122301934FF40043CDE93E
:101A3C00033001A8FEF764FF00B1FEE714B010BD3F
:101A4C00002103E00B4B5B58435004310A480B4B0D
:101A5C0042189A42F6D30A4A02E0002342F8043BA9
:101A6C00084B9A42F9D3FFF705FD00F00BFB00F091
:101A7C00ABF97047642700080000002088000020A4
:101A8C00880000204C030020FEE7000022282DE9EE
:101A9C00F0410E463DD8204B33F91040621C38D033
:101AAC001E4DC4F3031755F8273004F00F0823FA22
:101ABC0008F3DB0710D520461949FFF7C5FB10B119
:101ACC002046FFF7C7FE012303FA08F255F827302A
:101ADC0023EA020345F82730052E14D8DFE806F078
:101AEC00030F090B0D1100212046BDE8F041FFF753
:101AFC00BBBB1021F8E72021F6E70321F4E7012115
:101B0C00F2E70921F0E74921BDE8F0410548FFF76C
:101B1C00AFBCBDE8F08100BFC42500081C0200204A
:101B2C00142400080A26000822288EBF4FF0FF3329
:101B3C000C4B33F91030C3F30312042A98BF0A4834
:101B4C0003F00F0398BF50F82220084888BF0022EA
:101B5C0050F82330C3F30F2309B11361704753615D
:101B6C00704700BFC42500080C000020AC230008FF
:101B7C00FFF70EBA38B5044648B1FFF709FA054627
:101B8C0000F032F9FFF704FA431BA342F8D338BD37
:101B9C00836810B504462BB10322014698470023F5
:101BAC00C4E90233204610BD0B4B98420ED0B0F165
:101BBC00804F0DD0A3F5943398420BD04FF6FF73A2
:101BCC00064A904214BF1846032070470020704705
:101BDC000120704702207047002C01400008004093
:101BEC00014670B5044651F8100FFFF7DDFF0546AE
:101BFC000846FFF7ABFC0023084A04F1580642F8EC
:101C0C002530E36004F1A805B54204D0103D284608
:101C1C00FFF74EFEF8E7204670BD00BF0C02002017
:101C2C00F8B50023044603660367C0F88030C0F89B
:101C3C009030C0F8A03008460D46FFF7B5FF4FF6C0
:101C4C00FF739842064603D12F211E48FFF710FC64
:101C5C001D4A04F10C0342F8263000230E2204F135
:101C6C00100625613046C4E90C33C4E90E33C4E9CF
:101C7C001033C4E9142384F82C30A36484F84C305A
:101C8C0084F84D30E460FFF71DFC04F1580504F1B5
:101C9C00A80728461035FFF77BFFBD42F9D100237A
:101CAC004FF6FF72C4E90033C4E90632C4E90833C5
:101CBC00A360636180233046A362FEF78DFF20464C
:101CCC00F8BD00BF662600080C020020034B186804
:101CDC0010B10430FEF7A6BE704700BF0C02002006
:101CEC00FFF7F4BF034B586810B10430FEF79ABEEF
:101CFC00704700BF0C020020034B986810B10430F1
:101D0C00FEF790BE704700BF0C020020034BD86852
:101D1C0010B10430FEF786BE704700BF0C020020E5
:101D2C00826810B50AB900F0A5FAC368BDE8104086
:101D3C001847000010B5044620B940F22641064869
:101D4C00FFF796FB2046FFF7BBFB0068036E13B151
:101D5C005830FFF7E5FF10BD66260008FFF7EABF15
:101D6C0038B5054620B940F239411048FFF780FBE1
:101D7C002B7F013B072B11D8DFE803F01504101162
:101D8C001010101302242846FFF79AFB2401006858
:101D9C005834204483680BB1FFF7C2FF38BD0324CD
:101DAC00F1E70424EFE70124EDE700BF6626000805
:101DBC00FFF7D6BFFFF7D4BF08B50320FEF74AFAEA
:101DCC00BDE8084000F00EB808B5AFF30080FEF790
:101DDC00B7F9FEF7B9F900F009F8FAE700F076B9AF
:101DEC0000F07CB9FFF7FCB87047000008B5044B55
:101DFC002BB1044800F01AF808B1AFF3008008BD0D
:101E0C000000000030020020B0F86230013303F013
:101E1C003F03A0F86230B0F86230B0F85E009BB2BD
:101E2C0098424FF0FF3018BF00207047B0F8F430E4
:101E3C00B0F8F000181A00F03F007047B0F8F4301A
:101E4C00B0F8F0209BB293421ABFD0F8E830985CFF
:101E5C004FF0FF3070470000012370B50374B0F9E8
:101E6C00E230044601330E4600F1940508D190F897
:101E7C00F8302BB1002380F8F8302846FFF750FCDF
:101E8C00B4F8F2104B1C03F03F03B4F8F62092B2F6
:101E9C009342FAD0D4F8EC2028465654A4F8F230E9
:101EAC00FFF708FC18B928460249FFF715FC01207A
:101EBC0070BD00BF151E0008037C33B1B0F8F220D2
:101ECC00B0F8F6309BB29A42FAD1704700F1110388
:101EDC00914208BF4FF0FF31C0F8E8300023A0F862
:101EEC00E02000F15102A0F8F430C0E93B23A0F847
:101EFC00E210A0F8F630704770B54FF47A731646BE
:101F0C000022C0E90123164B044603604FF6FF7311
:101F1C00A0F8E230134B0D46984214D1124B9A8A1A
:101F2C00A0F8E220DB8AA0F8E030012E04BF4FF6C7
:101F3C00FF73A4F8E2302046B4F9E020B4F9E210C3
:101F4C00FFF7C4FF70BD09492846FFF779FA084925
:101F5C00A4F8E2002846FFF773FAA4F8E000E4E7DF
:101F6C00CC26000830020020C42500084C250008AF
:101F7C0088250008B0F9E23010B5013304460ED1C3
:101F8C0003685B69984794F8F83043B9012304F16E
:101F9C00940084F8F830BDE81040FFF7D1BB10BDB9
:101FAC0010B50446FFF7E6FFB4F8F420B4F8F030AF
:101FBC0092B29A4217BFD4F8E8204FF0FF30D05CB1
:101FCC0001331CBF03F03F03A4F8F03010BD000038
:101FDC00002202490248FFF78FBF00BF00380140C2
:101FEC0030020020F8B505460E4617460024BC42C8
:101FFC0007D02B6828461B68315D984708B101341F
:10200C00F5E72046F8BD10B50446FFF7B1FDE060DA
:10201C0023682046DB689847002808DAFFF7A8FDFC
:10202C00E368C01AA3689842F2D34FF0FF3010BD9A
:10203C00F8B506460D4617460024BC4207D030467C
:10204C00FFF7E1FF031E02DB2B550134F5E72046B9
:10205C00F8BD2DE9F0410746884616461D4673B17A
:10206C0000243846FFF7CFFF031E05DB434503D0A2
:10207C0033550134A542F4D12046BDE8F0811C460D
:10208C00FAE7000070B500260C4D0D4C641BA41033
:10209C00A64209D100F03CF900260A4D0A4C641BFB
:1020AC00A410A64205D170BD55F8043B98470136E3
:1020BC00EEE755F8043B98470136F2E74C27000849
:1020CC004C2700084C2700085C270008024B0146EF
:1020DC00186800F057B800BF24000020024B0146DE
:1020EC00186800F003B800BF2400002038B505467E
:1020FC00002943D051F8043C0C1F002BB8BFE41846
:10210C0000F0ACF81E4A1368104633B963601460D3
:10211C002846BDE8384000F0A7B8A3420AD9216888
:10212C006218934201BF1A685B68521822606360A0
:10213C000460EDE71A465B680BB1A342FAD911684B
:10214C005018A0420BD120680144501883421160F2
:10215C00DED118685B68014411605360D8E702D97E
:10216C000C232B60D4E7206821188B4201BF19681F
:10217C005B680918216063605460C9E738BD00BF13
:10218C0030030020F8B5CD1C25F0030508350C2DC7
:10219C0038BF0C25002D064601DBA94203D90C23C0
:1021AC0033600020F8BD00F059F821490A68144644
:1021BC009CB9204F3B6823B92146304600F03CF8CF
:1021CC0038602946304600F037F8431C23D10C23E5
:1021DC003046336000F048F8E3E723685B1B17D404
:1021EC000B2B03D923601C44256004E06368A242D6
:1021FC000CBF0B605360304600F036F804F10B0056
:10220C00231D20F00700C21ACCD01B1AA350C9E71B
:10221C0022466468CCE7C41C24F00304A042E3D03B
:10222C00211A304600F008F80130DDD1CFE700BFAD
:10223C00300300203403002038B50023054D04463C
:10224C0008462B60FDF792FF431C02D12B6803B1AB
:10225C00236038BD3C030020704770470148FFF7EE
:10226C00FBBF00BF440300200148FFF7F6BF00BFCF
:10227C004403002008B500F000F8062008B500F073
:10228C002BF80120FDF790FF1F2938B504460D46A9
:10229C0004D9162303604FF0FF3038BD426C12B1E5
:1022AC0052F821304BB9204600F030F82A4601464E
:1022BC002046BDE8384000F017B8012B0AD0591C55
:1022CC0003D1162303600120E7E70024284642F8D7
:1022DC00254098470020E0E7024B01461868FFF7BD
:1022EC00D3BF00BF2400002038B50023064D0446A0
:1022FC00084611462B60FDF759FF431C02D12B6891
:10230C0003B1236038BD00BF3C030020FDF756BF6E
:10231C00F8B500BFF8BC08BC9E467047F8B500BFC6
:08232C00F8BC08BC9E46704796
:1023340002030405060708090A0B0C0D0E0F101002
:10234400002F686F6D652F7368616D696D692F2E3D
:1023540061726475696E6F31352F7061636B61678B
:1023640065732F53544D33322F68617264776172F1
:10237400652F73746D33322F312E392E302F6C69E3
:10238400627261726965732F537263577261707000
:1023940065722F7372632F73746D33322F70696E8D
:1023A4006D61702E63000000010100000202000054
:1023B40004040000080800001010000020200000A1
:1023C400404000008080000001000104020002047B
:1023D4000400040408000804100010042000200471
:1023E4004000400480008004000000000000000061
:1023F400010203040607080954494D3A20556E6B3F
:102404006E6F776E2074696D6572204952516E004B
:1024140000000000000000401280000001000000E5
:102424000000004012000100020000000000004013
:1024340012800100030000000000004012000200AE
:1024440006000000000400401280000007000000A5
:10245400000400401200010008000000002C0140AC
:102464001280000009000000002C0140120001004D
:102474000A000000002C0140128001000B00000043
:10248400002C0140120002000F0000000000004078
:10249400128F0000100000000004004012800100B0
:1024A40011000000000400401200020013000000AC
:1024B40000000040120F010014000000000400405E
:1024C40012940000150000000004004012140100E2
:1024D40016000000000800401280000017000000F1
:1024E400000800401200010018000000000800402D
:1024F40012800100190000000008004012000200D0
:102504001A00000000000040128F01001B000000B0
:1025140000000040120F02001D000000002C0140CA
:10252400128010001E000000002C01401200110057
:102534001F000000002C014012801100FFFF00006A
:102544000000000000000000030000000044004000
:10255400100000000A0000000038014010000000D4
:102564001700000000380140100500001B000000A7
:102574000048004010000000FFFF000000000000C1
:1025840000000000020000000044004012000000AF
:10259400090000000038014012000000160000008D
:1025A40000380140120500001A00000000480040F5
:1025B40012000000FFFF0000000000000000000007
:1025C40019001800170016001500140013000F005E
:1025D4000C000B000A00090008001F001E001D006B
:1025E4001C002D002E002F0000000100020003003B
:1025F4000400050006000700100011001A001B006B
:1026040012000D000E002F686F6D652F7368616DE9
:10261400696D692F2E61726475696E6F31352F7023
:1026240061636B616765732F53544D33322F686157
:102634007264776172652F73746D33322F312E3962
:102644002E302F636F7265732F61726475696E6FBC
:102654002F776972696E675F6469676974616C2E4C
:1026640063002F686F6D652F7368616D696D692FE5
:102674002E61726475696E6F31352F7061636B61A1
:102684006765732F53544D33322F686172647761D9
:1026940072652F73746D33322F312E392E302F63C0
:1026A4006F7265732F61726475696E6F2F48617202
:1026B400647761726554696D65722E637070000091
:1026C4000000000000000000651E0008F11F000863
:1026D400391E0008AD1F0008491E0008C51E000869
:1026E4003D2000085F2000080000000000000000FA
:1026F40000000000000000000000000000000000D6
:1027040000000000000000000000000000000000C5
:1027140000000000000000000000000000000000B5
:1027240000000000000000000000000000000000A5
:102734000000000000000000000000000000000095
:0827440000000000000000008D
:10274C00C51D00083101000849190008DD1F0008EB
:08275C000D010008D11900086D
:102764005003002001000000100000000008014098
:10277400000C014000100140001401400018014009
:102784000024F40028000020000000000C270008AA
:102794002C270008EC2600080000000000000000C0
:1027A4000000000000000000000000000000000025
:1027B4000000000000000000000000000000000015
:1027C4000000000000000000000000000000000005
:1027D40000000000000000000000000000000000F5
:0827E4000000000000000000ED
:0400000508001A4D88
:00000001FF
